{
  "contractName": "PrimitiveDataTypes",
  "abi": [
    {
      "inputs": [],
      "stateMutability": "nonpayable",
      "type": "constructor"
    },
    {
      "inputs": [],
      "name": "boo",
      "outputs": [
        {
          "internalType": "bool",
          "name": "",
          "type": "bool"
        }
      ],
      "stateMutability": "view",
      "type": "function"
    },
    {
      "inputs": [],
      "name": "defaultAddress",
      "outputs": [
        {
          "internalType": "address",
          "name": "",
          "type": "address"
        }
      ],
      "stateMutability": "view",
      "type": "function"
    },
    {
      "inputs": [],
      "name": "defaultBoolean",
      "outputs": [
        {
          "internalType": "bool",
          "name": "",
          "type": "bool"
        }
      ],
      "stateMutability": "view",
      "type": "function"
    },
    {
      "inputs": [],
      "name": "defaultInt",
      "outputs": [
        {
          "internalType": "int256",
          "name": "",
          "type": "int256"
        }
      ],
      "stateMutability": "view",
      "type": "function"
    },
    {
      "inputs": [],
      "name": "defaultInteger",
      "outputs": [
        {
          "internalType": "uint256",
          "name": "",
          "type": "uint256"
        }
      ],
      "stateMutability": "view",
      "type": "function"
    },
    {
      "inputs": [],
      "name": "i",
      "outputs": [
        {
          "internalType": "int256",
          "name": "",
          "type": "int256"
        }
      ],
      "stateMutability": "view",
      "type": "function"
    },
    {
      "inputs": [],
      "name": "i16",
      "outputs": [
        {
          "internalType": "int256",
          "name": "",
          "type": "int256"
        }
      ],
      "stateMutability": "view",
      "type": "function"
    },
    {
      "inputs": [],
      "name": "i8",
      "outputs": [
        {
          "internalType": "int8",
          "name": "",
          "type": "int8"
        }
      ],
      "stateMutability": "view",
      "type": "function"
    },
    {
      "inputs": [],
      "name": "u",
      "outputs": [
        {
          "internalType": "uint256",
          "name": "",
          "type": "uint256"
        }
      ],
      "stateMutability": "view",
      "type": "function"
    },
    {
      "inputs": [],
      "name": "u256",
      "outputs": [
        {
          "internalType": "uint256",
          "name": "",
          "type": "uint256"
        }
      ],
      "stateMutability": "view",
      "type": "function"
    },
    {
      "inputs": [],
      "name": "u8",
      "outputs": [
        {
          "internalType": "uint8",
          "name": "",
          "type": "uint8"
        }
      ],
      "stateMutability": "view",
      "type": "function"
    }
  ],
  "bytecode": "0x608060405260015f806101000a81548160ff02191690831515021790555060015f60016101000a81548160ff021916908360ff1602179055506101c8600155607d6002557fffffffffffffffffffffffffffffffffffffffffffffffffffffffffffffffff60035f6101000a81548160ff02191690835f0b60ff1602179055506101c86004557fffffffffffffffffffffffffffffffffffffffffffffffffffffffffffffff8560055560b560f81b60065f6101000a81548160ff021916908360f81c0217905550605a60f81b600660016101000a81548160ff021916908360f81c02179055503480156100f1575f80fd5b50600161010157610100610192565b5b6001600660026101000a81548160ff021916908315150217905550602a6007819055507fffffffffffffffffffffffffffffffffffffffffffffffffffffffffffffffd660088190555061012360095f6101000a81548173ffffffffffffffffffffffffffffffffffffffff021916908373ffffffffffffffffffffffffffffffffffffffff1602179055506101bf565b7f4e487b71000000000000000000000000000000000000000000000000000000005f52600160045260245ffd5b61040e806101cc5f395ff3fe608060405234801561000f575f80fd5b50600436106100a7575f3560e01c80635c1016931161006f5780635c10169314610141578063921cda741461015f578063ab3a58a31461017d578063c6a898c51461019b578063dcab8d35146101b9578063e5aa3d58146101d7576100a7565b80630f278520146100ab578063459b1acf146100c957806345f07d6b146100e75780634b3df200146101055780635abe622b14610123575b5f80fd5b6100b36101f5565b6040516100c0919061029c565b60405180910390f35b6100d16101fb565b6040516100de919061029c565b60405180910390f35b6100ef610201565b6040516100fc91906102cd565b60405180910390f35b61010d610207565b60405161011a9190610300565b60405180910390f35b61012b610217565b60405161013891906102cd565b60405180910390f35b61014961021d565b6040516101569190610358565b60405180910390f35b610167610242565b604051610174919061038b565b60405180910390f35b610185610253565b60405161019291906103bf565b60405180910390f35b6101a3610265565b6040516101b0919061029c565b60405180910390f35b6101c161026b565b6040516101ce9190610300565b60405180910390f35b6101df61027e565b6040516101ec91906102cd565b60405180910390f35b60075481565b60015481565b60045481565b5f8054906101000a900460ff1681565b60085481565b60095f9054906101000a900473ffffffffffffffffffffffffffffffffffffffff1681565b60035f9054906101000a90045f0b81565b5f60019054906101000a900460ff1681565b60025481565b600660029054906101000a900460ff1681565b60055481565b5f819050919050565b61029681610284565b82525050565b5f6020820190506102af5f83018461028d565b92915050565b5f819050919050565b6102c7816102b5565b82525050565b5f6020820190506102e05f8301846102be565b92915050565b5f8115159050919050565b6102fa816102e6565b82525050565b5f6020820190506103135f8301846102f1565b92915050565b5f73ffffffffffffffffffffffffffffffffffffffff82169050919050565b5f61034282610319565b9050919050565b61035281610338565b82525050565b5f60208201905061036b5f830184610349565b92915050565b5f815f0b9050919050565b61038581610371565b82525050565b5f60208201905061039e5f83018461037c565b92915050565b5f60ff82169050919050565b6103b9816103a4565b82525050565b5f6020820190506103d25f8301846103b0565b9291505056fea2646970667358221220833dcbbe6d33a7cb1c177c2d328afa3f540c007841de7f26d782e2ee3910f60964736f6c63430008150033",
  "immutableReferences": {},
  "source": "// SPDX-License-Identifier: MIT\npragma solidity >=0.4.22 <0.9.0;\n\ncontract PrimitiveDataTypes {\n    // boolean type \n    bool public boo = true;\n\n    // uinit - non-negative integer\n    // uinit8 range is -> 0 to 2^8-1, and uinit16 -> 0 to 2^16-1 \n    uint8 public u8 = 1;\n    uint public u256 = 456;\n    uint public u = 125;\n\n    // int allowed to negative integer\n    int8 public i8 = -1;\n    int public i16 = 456;\n    int public i = -123;\n\n    // dynamic array of bytes\n    bytes1 a = 0xb5;\n    bytes1 b = 0x5a;\n\n    // default values\n    bool public defaultBoolean; // false\n    uint public defaultInteger; // 0\n    int public defaultInt; // 0\n    address public defaultAddress; //0x00000000000000\n\n    // Constructor\n    constructor() {\n        // Add assert conditions if necessary\n        assert(true); // Example assert condition\n\n        // Initialize contract state variables in the constructor if needed\n        defaultBoolean = true;\n        defaultInteger = 42;\n        defaultInt = -42;\n        defaultAddress = address(0x123);\n    }\n}\n",
  "sourcePath": "/home/mohit/MohitDB/Learning/solidity/contracts/PrimitiveDataType.sol",
  "compiler": {
    "name": "solc",
    "version": "0.8.21+commit.d9974bed.Emscripten.clang"
  },
  "schemaVersion": "3.4.16",
  "updatedAt": "2023-12-09T17:03:12.920Z",
  "devdoc": {
    "kind": "dev",
    "methods": {},
    "version": 1
  },
  "userdoc": {
    "kind": "user",
    "methods": {},
    "version": 1
  }
}