{
  "contractName": "Variables",
  "abi": [
    {
      "inputs": [],
      "stateMutability": "nonpayable",
      "type": "constructor"
    },
    {
      "inputs": [],
      "name": "num",
      "outputs": [
        {
          "internalType": "uint256",
          "name": "",
          "type": "uint256"
        }
      ],
      "stateMutability": "view",
      "type": "function",
      "constant": true
    },
    {
      "inputs": [],
      "name": "str",
      "outputs": [
        {
          "internalType": "string",
          "name": "",
          "type": "string"
        }
      ],
      "stateMutability": "view",
      "type": "function",
      "constant": true
    },
    {
      "inputs": [],
      "name": "DoSomething",
      "outputs": [],
      "stateMutability": "nonpayable",
      "type": "function"
    }
  ],
  "bytecode": "0x60806040526040518060400160405280600581526020017f48656c6c6f0000000000000000000000000000000000000000000000000000008152506000908051906020019061004f92919061008b565b50607b60015534801561006157600080fd5b5061007061007560201b60201c565b61018e565b60006101c8905060004290506000339050505050565b8280546100979061015d565b90600052602060002090601f0160209004810192826100b95760008555610100565b82601f106100d257805160ff1916838001178555610100565b82800160010185558215610100579182015b828111156100ff5782518255916020019190600101906100e4565b5b50905061010d9190610111565b5090565b5b8082111561012a576000816000905550600101610112565b5090565b7f4e487b7100000000000000000000000000000000000000000000000000000000600052602260045260246000fd5b6000600282049050600182168061017557607f821691505b6020821081036101885761018761012e565b5b50919050565b6102bb8061019d6000396000f3fe608060405234801561001057600080fd5b50600436106100415760003560e01c80632146cf78146100465780634e70b1dc14610050578063c15bae841461006e575b600080fd5b61004e61008c565b005b6100586100a2565b604051610065919061014f565b60405180910390f35b6100766100a8565b6040516100839190610203565b60405180910390f35b60006101c8905060004290506000339050505050565b60015481565b600080546100b590610254565b80601f01602080910402602001604051908101604052809291908181526020018280546100e190610254565b801561012e5780601f106101035761010080835404028352916020019161012e565b820191906000526020600020905b81548152906001019060200180831161011157829003601f168201915b505050505081565b6000819050919050565b61014981610136565b82525050565b60006020820190506101646000830184610140565b92915050565b600081519050919050565b600082825260208201905092915050565b60005b838110156101a4578082015181840152602081019050610189565b838111156101b3576000848401525b50505050565b6000601f19601f8301169050919050565b60006101d58261016a565b6101df8185610175565b93506101ef818560208601610186565b6101f8816101b9565b840191505092915050565b6000602082019050818103600083015261021d81846101ca565b905092915050565b7f4e487b7100000000000000000000000000000000000000000000000000000000600052602260045260246000fd5b6000600282049050600182168061026c57607f821691505b60208210810361027f5761027e610225565b5b5091905056fea26469706673582212208596131e3b385cbf11ddd4a0f39eac97e4564c41ad80375869247dee4ce182ca64736f6c634300080d0033",
  "immutableReferences": {},
  "source": "// SPDX-License-Identifier: MIT\npragma solidity >=0.4.22 <0.9.0;\n\ncontract Variables {\n  // state variables that are stored in blockchain\n  string public str = 'Hello';\n  uint public num = 123;\n\n  function DoSomething() public{\n    // local variables  - are not strored in blockchain\n    uint i = 456;\n    // here some global variables - that provide information about the blockchain\n    uint timestamp = block.timestamp;\n    address sender = msg.sender;\n\n  }\n  constructor() public {\n    str;\n    num;\n    DoSomething();\n  }\n}\n",
  "sourcePath": "/home/mohit/MohitDB/Learning/solidity/contracts/Variables.sol",
  "compiler": {
    "name": "solc",
    "version": "0.8.13+commit.abaa5c0e.Emscripten.clang"
  },
  "schemaVersion": "3.4.16",
  "updatedAt": "2023-12-11T02:00:54.478Z",
  "networkType": "ethereum",
  "devdoc": {
    "kind": "dev",
    "methods": {},
    "version": 1
  },
  "userdoc": {
    "kind": "user",
    "methods": {},
    "version": 1
  }
}