{
  "contractName": "VariableData",
  "abi": [
    {
      "inputs": [],
      "name": "num",
      "outputs": [
        {
          "internalType": "uint256",
          "name": "",
          "type": "uint256"
        }
      ],
      "stateMutability": "view",
      "type": "function",
      "constant": true
    },
    {
      "inputs": [],
      "name": "text",
      "outputs": [
        {
          "internalType": "string",
          "name": "",
          "type": "string"
        }
      ],
      "stateMutability": "view",
      "type": "function",
      "constant": true
    },
    {
      "inputs": [],
      "name": "doSomething",
      "outputs": [],
      "stateMutability": "nonpayable",
      "type": "function"
    }
  ],
  "bytecode": "0x60806040526040518060400160405280600581526020017f48656c6c6f0000000000000000000000000000000000000000000000000000008152506000908051906020019061004f929190610067565b50607b60015534801561006157600080fd5b5061016a565b82805461007390610139565b90600052602060002090601f01602090048101928261009557600085556100dc565b82601f106100ae57805160ff19168380011785556100dc565b828001600101855582156100dc579182015b828111156100db5782518255916020019190600101906100c0565b5b5090506100e991906100ed565b5090565b5b808211156101065760008160009055506001016100ee565b5090565b7f4e487b7100000000000000000000000000000000000000000000000000000000600052602260045260246000fd5b6000600282049050600182168061015157607f821691505b6020821081036101645761016361010a565b5b50919050565b6103de806101796000396000f3fe608060405234801561001057600080fd5b50600436106100415760003560e01c80631f1bd692146100465780634e70b1dc146100645780638269267914610082575b600080fd5b61004e61008c565b60405161005b91906102f2565b60405180910390f35b61006c61011a565b604051610079919061032d565b60405180910390f35b61008a610120565b005b6000805461009990610377565b80601f01602080910402602001604051908101604052809291908181526020018280546100c590610377565b80156101125780601f106100e757610100808354040283529160200191610112565b820191906000526020600020905b8154815290600101906020018083116100f557829003601f168201915b505050505081565b60015481565b6040518060400160405280600c81526020017f48656c6c6f2c20776f726c6400000000000000000000000000000000000000008152506000908051906020019061016b9291906101b6565b504260028190555033600360006101000a81548173ffffffffffffffffffffffffffffffffffffffff021916908373ffffffffffffffffffffffffffffffffffffffff160217905550565b8280546101c290610377565b90600052602060002090601f0160209004810192826101e4576000855561022b565b82601f106101fd57805160ff191683800117855561022b565b8280016001018555821561022b579182015b8281111561022a57825182559160200191906001019061020f565b5b509050610238919061023c565b5090565b5b8082111561025557600081600090555060010161023d565b5090565b600081519050919050565b600082825260208201905092915050565b60005b83811015610293578082015181840152602081019050610278565b838111156102a2576000848401525b50505050565b6000601f19601f8301169050919050565b60006102c482610259565b6102ce8185610264565b93506102de818560208601610275565b6102e7816102a8565b840191505092915050565b6000602082019050818103600083015261030c81846102b9565b905092915050565b6000819050919050565b61032781610314565b82525050565b6000602082019050610342600083018461031e565b92915050565b7f4e487b7100000000000000000000000000000000000000000000000000000000600052602260045260246000fd5b6000600282049050600182168061038f57607f821691505b6020821081036103a2576103a1610348565b5b5091905056fea26469706673582212207542ce7b5c6fc908de8268f5bb42bc06b3e18f92a9ec5aeed6a5b6dc0165ffa464736f6c634300080d0033",
  "immutableReferences": {},
  "source": "// SPDX-License-Identifier: MIT\npragma solidity >=0.4.22 <0.9.0;\n\ncontract VariableData {\n  string public text = 'Hello';\n  uint public num = 123;\n  uint timeStamp ;\n  address sender;\n  function doSomething() public {\n    text = 'Hello, world';\n    timeStamp = block.timestamp;\n    sender = msg.sender;\n  }\n}\n",
  "sourcePath": "/home/mohit/MohitDB/Learning/solidity/contracts/VariableData.sol",
  "compiler": {
    "name": "solc",
    "version": "0.8.13+commit.abaa5c0e.Emscripten.clang"
  },
  "schemaVersion": "3.4.16",
  "updatedAt": "2023-12-09T17:26:45.629Z",
  "networkType": "ethereum",
  "devdoc": {
    "kind": "dev",
    "methods": {},
    "version": 1
  },
  "userdoc": {
    "kind": "user",
    "methods": {},
    "version": 1
  }
}